:100000000C942A000C9447000C9447000C94470071
:100010000C9453100C9420100C9447000C94ED0F8A
:100020000C9447000C94BA0F0C94870F0C94540F47
:100030000C9447000C9447000C9447000C94470024
:100040000C9447000C9447000C9447000C94470014
:100050000C94470011241FBECFE5D8E0DEBFCDBF12
:1000600010E0A0E6B0E0E2E7FAE202C005900D92EF
:10007000AC37B107D9F710E0ACE7B0E001C01D9292
:10008000A438B107E1F70E94A3050C9437150C942E
:100090000000EF92FF920F931F937B018C0120E0F1
:1000A00030E040E05FE40E94490388238CF0C801FF
:1000B000B70120E030E040E05FE40E94C1010E940F
:1000C000A9039B01AC01205030404040504806C07D
:1000D000C801B7010E94A9039B01AC01B901CA0183
:1000E0001F910F91FF90EF900895A0E0B0E0EBE733
:1000F000F0E00C94F714DC012B01FA019C91923092
:1001000008F439C1EB018881823008F433C194309E
:1001100069F4843009F02FC111969C91119789815F
:10012000981709F428C1A0E6B0E025C1843009F48D
:1001300021C18230A9F4923009F01DC19A01AD01AC
:1001400088E0EA010990AE01E90109929E0181501F
:10015000C1F7E201898111969C918923818308C1AD
:10016000923009F407C112962D903C901397EB0141
:100170008A819B811496AD90BD90CD90DC901797AD
:10018000EC80FD800E811F819101281B390BB90184
:1001900037FF04C066277727621B730B6032710537
:1001A0000CF061C0121613066CF537014801062EDB
:1001B00004C096948794779467940A94D2F721E0C8
:1001C00030E040E050E004C0220F331F441F551FB1
:1001D0006A95D2F721503040404050402E213F21B7
:1001E00040235123211531054105510521F021E01E
:1001F00030E040E050E079018A01E628F72808293C
:1002000019293CC0232BD1F1260E371E350146019A
:10021000062E04C096948794779467940A94D2F734
:1002200021E030E040E050E004C0220F331F441FC3
:10023000551F6A95D2F721503040404050402A2146
:100240003B214C215D21211531054105510521F04E
:1002500021E030E040E050E059016A01A628B728CB
:10026000C828D9280BC0821593052CF01C01AA249C
:10027000BB24650103C0EE24FF24870111969C91E5
:10028000D20111968C91981709F445C0992339F041
:10029000A80197012A193B094C095D0906C0A6016E
:1002A00095012E193F09400B510B57FD08C01182D3
:1002B0003382228224833583468357831DC081E0A5
:1002C00081833382228288279927DC01821B930B4A
:1002D000A40BB50B84839583A683B7830DC0220F2F
:1002E000331F441F551F24833583468357838281E0
:1002F000938101979383828324813581468157813D
:10030000DA01C9010197A109B1098F5F9F4FAF4F72
:10031000BF4328F30BC0918333822282EA0CFB1C7B
:100320000C1D1D1DE482F5820683178383E0808304
:10033000248135814681578157FF1AC0C901AA27F8
:1003400097FDA095BA2F81709070A070B0705695EF
:10035000479537952795822B932BA42BB52B848318
:100360009583A683B7838281938101969383828349
:10037000DF0101C0D201CD01CDB7DEB7E2E10C94BF
:100380001315A0E2B0E0E7ECF1E00C9403156983EB
:100390007A838B839C832D833E834F835887E9E048
:1003A000EE2EF12CEC0EFD1ECE010196B7010E943F
:1003B000D2048E010F5E1F4FCE010596B8010E9438
:1003C000D2048A8991E089278A8BC701B801AE01DE
:1003D000475E5F4F0E9475000E94FD03A096E6E015
:1003E0000C941F15A0E2B0E0E8EFF1E00C940315C7
:1003F00069837A838B839C832D833E834F835887C5
:10040000F9E0EF2EF12CEC0EFD1ECE010196B701A6
:100410000E94D2048E010F5E1F4FCE010596B801D7
:100420000E94D204C701B801AE01475E5F4F0E942F
:1004300075000E94FD03A096E6E00C941F15A0E253
:10044000B0E0E5E2F2E00C94F71469837A838B83E1
:100450009C832D833E834F835887CE010196BE0136
:10046000675F7F4F0E94D204CE010596BE016F5E8A
:100470007F4F0E94D2049985923088F0898982301A
:10048000C8F0943019F4823051F404C0843029F457
:10049000923081F480E690E0C6C0923049F420E0CA
:1004A0009A858A89981321E02A87CE010996BBC0D4
:1004B000823049F420E09A858A89981321E02A8BBA
:1004C000CE014196B0C02D843E844F8458886D88FB
:1004D0007E888F88988CEE24FF248701AA24BB2471
:1004E000650140E050E060E070E0E0E0F0E0C10174
:1004F00081709070892BE9F0E60CF71C081D191D1E
:100500009A01AB012A0D3B1D4C1D5D1D80E090E062
:10051000A0E0B0E0E614F7040805190520F481E036
:1005200090E0A0E0B0E0BA01A901480F591F6A1F8E
:100530007B1FAA0CBB1CCC1CDD1C97FE08C081E0F5
:1005400090E0A0E0B0E0A82AB92ACA2ADB2A3196B6
:10055000E032F10549F0660C771C881C991C569412
:10056000479437942794C3CFFA85EA892B893C892D
:100570008B859C85280F391F2E5F3F4F17C0CA01FE
:1005800081709070892B61F016950795F794E79428
:1005900080E090E0A0E0B0E8E82AF92A0A2B1B2BC3
:1005A00076956795579547952F5F3F4F77FDE7CF36
:1005B0000CC0440F551F661F771F17FD4160EE0CDE
:1005C000FF1C001F111F21503040403090E05907A0
:1005D00090E0690790E4790760F32B8F3C8FDB0193
:1005E000CA018F779070A070B07080349105A1051A
:1005F000B10561F447FD0AC0E114F10401051105DC
:1006000029F0405C5F4F6F4F7F4F40781A8EFE1786
:1006100011F081E08A8F4D8F5E8F6F8F78A383E01A
:10062000898FCE0149960E94FD03A096E2E10C94C9
:100630001315A8E1B0E0EFE1F3E00C940315698332
:100640007A838B839C832D833E834F83588789E0F5
:10065000E82EF12CEC0EFD1ECE010196B7010E9492
:10066000D2048E010F5E1F4FCE010596B8010E9485
:10067000D2048985823040F08989823028F0C70110
:10068000B8010E944A0501C08FEF6896E6E00C941D
:100690001F15A8E1B0E0EFE4F3E00C9403156983C3
:1006A0007A838B839C832D833E834F83588789E095
:1006B000E82EF12CEC0EFD1ECE010196B7010E9432
:1006C000D2048E010F5E1F4FCE010596B8010E9425
:1006D000D2048985823040F08989823028F0C701B0
:1006E000B8010E944A0501C08FEF6896E6E00C94BD
:1006F0001F15A8E1B0E0EFE7F3E00C940315698360
:100700007A838B839C832D833E834F83588789E034
:10071000E82EF12CEC0EFD1ECE010196B7010E94D1
:10072000D2048E010F5E1F4FCE010596B8010E94C4
:10073000D2048985823040F08989823028F0C7014F
:10074000B8010E944A0501C081E06896E6E00C9479
:100750001F15ACE0B0E0EFEAF3E00C9407156983F5
:100760007A838B839C83CE010196BE016B5F7F4FA2
:100770000E94D2048D81823061F1823050F1843048
:1007800021F48E81882351F12EC02F81388537FDC9
:1007900020C06E812F3131051CF06623F9F023C093
:1007A0008EE190E0821B930B29853A854B855C8511
:1007B00004C056954795379527958A95D2F76623B5
:1007C000B1F050954095309521953F4F4F4F5F4F79
:1007D0000EC020E030E040E050E009C02FEF3FEFD6
:1007E0004FEF5FE704C020E030E040E050E8B9019F
:1007F000CA012C96E2E00C942315DF92EF92FF924F
:100800000F931F93FC01E480F58006811781D1804E
:100810008081823048F480E090E0A0E1B0E0E82AF6
:10082000F92A0A2B1B2BA5C0843009F49FC0823003
:1008300021F4EE24FF24870105C0E114F104010531
:10084000110519F4E0E0F0E096C0628173819FEF3A
:10085000623879070CF05BC022E83FEF261B370BAC
:100860002A3131052CF020E030E040E050E02AC091
:10087000B801A701022E04C0769567955795479554
:100880000A94D2F781E090E0A0E0B0E004C0880FC5
:10089000991FAA1FBB1F2A95D2F70197A109B10979
:1008A0008E219F21A023B1230097A105B10521F03E
:1008B00081E090E0A0E0B0E09A01AB01282B392B59
:1008C0004A2B5B2BDA01C9018F779070A070B07052
:1008D00080349105A105B10539F427FF09C0205CDA
:1008E0003F4F4F4F5F4F04C0215C3F4F4F4F5F4F13
:1008F000E0E0F0E02030A0E03A07A0E04A07A0E402
:100900005A0710F0E1E0F0E079018A0127C0603871
:10091000710564F5FB01E158FF4FD801C7018F77DE
:100920009070A070B07080349105A105B10539F4C4
:10093000E7FE0DC080E490E0A0E0B0E004C08FE3EB
:1009400090E0A0E0B0E0E80EF91E0A1F1B1F17FFA1
:1009500005C016950795F794E794319687E01695AC
:100960000795F794E7948A95D1F705C0EE24FF2404
:100970008701EFEFF0E06E2F679566276795902F60
:100980009F77D794DD24D7948E2F8695492F462BB9
:10099000582F5D29B701CA011F910F91FF90EF9069
:1009A000DF900895FC01DB01408151812281622F9B
:1009B0006F7770E0221F2227221F9381892F880FD3
:1009C000822B282F30E0991F9927991F11969C930D
:1009D000119721153105A9F54115510561057105DD
:1009E00011F482E037C082E89FEF13969C938E93B8
:1009F00012979A01AB0167E0220F331F441F551F66
:100A00006A95D1F783E08C930DC0220F331F441FEA
:100A1000551F12968D919C911397019713969C9355
:100A20008E931297203080E0380780E0480780E4FA
:100A3000580758F314962D933D934D935C93179755
:100A400008952F3F310579F4411551056105710570
:100A500019F484E08C93089564FF03C081E08C93C3
:100A600012C01C9210C02F57304013963C932E9307
:100A7000129783E08C9387E0440F551F661F771F02
:100A80008A95D1F7706414964D935D936D937C9322
:100A9000179708951F93DC01FB019C91923008F495
:100AA00047C08081823008F443C0943051F41196DD
:100AB0001C91843099F58181682F70E0611B710968
:100AC0003FC0843021F0923031F48230B9F181811D
:100AD000882389F12DC011961C9111978230F1F075
:100AE00081811817D9F412962D913C911397828128
:100AF00093818217930794F028173907BCF0149656
:100B00008D919D910D90BC91A02D248135814681C0
:100B10005781281739074A075B0718F4112341F05A
:100B20000AC082179307A407B50740F4112319F0F0
:100B300061E070E005C06FEF7FEF02C060E070E041
:100B4000CB011F910895DF93CF93CDB7DEB7C85582
:100B5000D0400FB6F894DEBF0FBECDBF86E08DA7A4
:100B60008DA5882F90E02DB73EB7281B390B0FB607
:100B7000F8943EBF0FBE2DBF8DB79EB701962A9643
:100B80009FAF8EAF2A972A968EAD9FAD2A9700967B
:100B90002A969FAF8EAF2A972A96EEADFFAD2A9781
:100BA000F9ABE8AB8DA5882F90E02DB73EB7281B99
:100BB000390B0FB6F8943EBF0FBE2DBF8DB79EB751
:100BC000019628969FAF8EAF289728968EAD9FAD41
:100BD0002897009628969FAF8EAF28972896EEAD5F
:100BE000FFAD2897FFA7EEA71CA69E012E5C3F4FE6
:100BF0002C963FAF2EAF2C9785E790E02E969FAFB7
:100C00008EAF2E9797E02F969FAF2F972E96EEAD33
:100C1000FFAD2E9700802E962EAD3FAD2E972F5F05
:100C20003F4F2E963FAF2EAF2E972C96EEADFFADD9
:100C30002C9700822C962EAD3FAD2C972F5F3F4F07
:100C40002C963FAF2EAF2C972F963FAD2F9731505C
:100C50002F963FAF2F972F968FAD2F978823B1F602
:100C6000FE01F9966196FFAFEEAF61972EE630E098
:100C700063963FAF2EAF639737E064963FAF6497BC
:100C80006396EEADFFAD6397008063962EAD3FADEA
:100C900063972F5F3F4F63963FAF2EAF6397619689
:100CA000EEADFFAD6197008261962EAD3FAD6197CD
:100CB0002F5F3F4F61963FAF2EAF619764963FAD78
:100CC0006497315064963FAF649764968FAD649794
:100CD0008823B1F6AFE5B0E0EFE5F0E08081806811
:100CE0008C93CE01C9960E947513FE01E05CFF4F04
:100CF0006696FFAFEEAF669728E630E068963FAFA6
:100D00002EAF689736E069963FAF69976896EEAD6B
:100D1000FFAD6897008068962EAD3FAD68972F5F56
:100D20003F4F68963FAF2EAF68976696EEADFFAD2A
:100D30006697008266962EAD3FAD66972F5F3F4F58
:100D400066963FAF2EAF669769963FAD6997315073
:100D500069963FAF699769968FAD69978823B1F619
:100D6000CE01805C9F4F0E94B21286E899E061E05C
:100D70000E9486100E9492090E94040980E090E07F
:100D8000A0E2B1E48FA398A7A9A7BAA76FA178A5FD
:100D900089A59AA520E030E04AEF54E40E941F02A2
:100DA000DC01CB018BA39CA3ADA3BEA36BA17CA153
:100DB0008DA19EA120E030E040E85FE30E9479032E
:100DC00088232CF481E090E09AA389A33FC06BA113
:100DD0007CA18DA19EA120E03FEF4FE757E40E9448
:100DE000190318164CF56FA178A589A59AA520E0DE
:100DF00030E040E251E40E941F02DC01CB01BC0163
:100E0000CD010E944900DC01CB019AA389A30FC048
:100E100088EC90E098A38F8F8F8D98A10197F1F7C0
:100E200098A38F8F89A19AA101979AA389A389A1D9
:100E30009AA1009769F714C06BA17CA18DA19EA116
:100E40000E944900DC01CB019AA389A389A19AA140
:100E50009E8F8D8F8D8D9E8D0197F1F79E8F8D8F3B
:100E60001BA628C08FEF0E94DE1388A999A90E94B3
:100E700045142EA53FA581E193E0B90145E00E940C
:100E8000230BEEA5FFA5158288A999A92EA53FA53C
:100E9000B9010E942E15009739F483E30E94DE13F6
:100EA0000E94F5138CA709C082E30E94DE138BA574
:100EB0008F5F8BA78BA58330A8F28BA58330A1F41D
:100EC000CE01C2960E94BF100E94B00910927C0011
:100ED00080917C008D33E0F381E00E9455121092E6
:100EE0007C000E94BC09BCCF8CA5853509F0B7C039
:100EF000CE01C2960E94BF1082E064E60E94E30920
:100F000010927C0080917C008031E0F381E00E94AF
:100F1000551210927C0080E060E00E94E309CE014F
:100F2000C2960E94BF1080917C008330E0F380E085
:100F300090E0A8E4B3E4898F9A8FAB8FBC8F698D62
:100F40007A8D8B8D9C8D20E030E04AEF54E40E9436
:100F50001F02DC01CB018D8B9E8BAF8BB88F6D890F
:100F60007E898F89988D20E030E040E85FE30E9421
:100F7000790388232CF481E090E09C8B8B8B3FC01D
:100F80006D897E898F89988D20E03FEF4FE757E488
:100F90000E94190318164CF5698D7A8D8B8D9C8DE6
:100FA00020E030E040E251E40E941F02DC01CB016E
:100FB000BC01CD010E944900DC01CB019C8B8B8BD5
:100FC0000FC088EC90E09A8B898B89899A89019768
:100FD000F1F79A8B898B8B899C8901979C8B8B8BE2
:100FE0008B899C89009769F714C06D897E898F89E8
:100FF000988D0E944900DC01CB019C8B8B8B8B89E7
:101000009C89988B8F878F8598890197F1F7988BAA
:101010008F870E94FE0E80937D0080917D00882343
:10102000C1F781E00E94551210927C0084E40E9476
:10103000DE1381E064E60E94E309CE01C2960E94BD
:10104000BF1080917C008031E0F381E00E94551256
:1010500010927C0080E060E00E94E30901CF8CA543
:10106000833E09F0FDCE0E94A80880E090E0A0E257
:10107000B1E48B879C87AD87BE876B857C858D852A
:101080009E8520E030E04AEF54E40E941F02DC011C
:10109000CB018F839887A987BA876F8178858985E7
:1010A0009A8520E030E040E85FE30E9479038823DE
:1010B0002CF481E090E09E838D833FC06F81788522
:1010C00089859A8520E03FEF4FE757E40E94190396
:1010D00018164CF56B857C858D859E8520E030E06B
:1010E00040E251E40E941F02DC01CB01BC01CD01B2
:1010F0000E944900DC01CB019E838D830FC088ECE8
:1011000090E09C838B838B819C810197F1F79C837A
:101110008B838D819E8101979E838D838D819E819E
:10112000009769F79DCE6F81788589859A850E94A1
:101130004900DC01CB019E838D838D819E819A8342
:10114000898389819A810197F1F79A83898388CE6F
:101150000F931F93DF93CF93CDB7DEB72F970FB6C3
:10116000F894DEBF0FBECDBF19820FC08981082F52
:1011700010E00E94F513282FCE010296FC01E00F2B
:10118000F11F208389818F5F89838981853070F386
:101190009E01275F3F4F81E193E0B90145E00E9446
:1011A000230B19821BC08981282F30E0CE010296C3
:1011B000FC01E20FF31F40818981282F30E0CE012E
:1011C0000996FC01E20FF31F8081481721F083E3A9
:1011D0000E94DE1306C089818F5F898389818530F3
:1011E00010F38981853029F482E30E94DE130E9486
:1011F00004092F960FB6F894DEBF0FBECDBFCF9176
:10120000DF911F910F910895DF93CF93CDB7DEB794
:101210002D970FB6F894DEBF0FBECDBF2DB73EB7EA
:101220003D872C878DB79EB79F838E8386E0898309
:101230008981882F90E02DB73EB7281B390B0FB658
:10124000F8943EBF0FBE2DBF8DB79EB701969B870A
:101250008A878A859B8500969B878A872A853B8516
:101260003D832C838981882F90E02DB73EB7281BC2
:10127000390B0FB6F8943EBF0FBE2DBF8DB79EB78A
:1012800001969987888788859985009699878887A8
:10129000288539853B832A838FEF0E94DE138C815A
:1012A0009D810E9445148A819B810E9445148C81F6
:1012B0009D812A813B81B9010E942E15009711F56D
:1012C0002C813D8181E193E0B90145E00E94C90A8A
:1012D00081E10E94DE138E819F810FB6F8949EBF3C
:1012E0000FBE8DBF2C853D850FB6F8943EBF0FBE57
:1012F0002DBF2D960FB6F894DEBF0FBECDBFCF9198
:10130000DF91089582E20E94DE13C6CFDF93CF9370
:10131000CDB7DEB780917C008F5F80937C00CF914A
:10132000DF910895DF93CF93CDB7DEB70E949F0979
:101330000E94C8090E94F20ECF91DF910895DF93B9
:10134000CF93CDB7DEB782E067E041E00E94B40BF7
:1013500082E067E040E00E949F0CCF91DF9108950A
:10136000DF93CF93CDB7DEB782E067E041E00E9424
:101370009F0CCF91DF910895DF93CF93CDB7DEB768
:1013800082E067E040E00E949F0CCF91DF910895DA
:10139000DF93CF93CDB7DEB783E066E041E00E94F4
:1013A000B40B83E067E041E00E94B40B83E066E0A9
:1013B00040E00E949F0C83E067E040E00E949F0CA9
:1013C000CF91DF910895DF93CF9300D000D0CDB7B8
:1013D000DEB789836A838981282F30E03C832B83A1
:1013E0008B819C8181309105F9F02B813C812230E9
:1013F000310579F08B819C81009701F583E066E0EF
:1014000040E00E949F0C83E067E040E00E949F0C58
:1014100015C083E066E040E00E949F0C83E067E037
:1014200041E00E949F0C0AC083E066E041E00E9418
:101430009F0C83E067E040E00E949F0C8A810E943D
:101440000D0F0F900F900F900F90CF91DF91089597
:10145000DF93CF9300D000D0CDB7DEB79A838983D6
:101460006B830E940E130E946613883011F01C8259
:1014700028C089819A8180709770880F892F881F72
:10148000990B9195806A0E9429130E9466138831F6
:1014900011F01C8216C089810E9429130E946613D4
:1014A000883211F01C820DC08B810E9429130E948A
:1014B0006613883211F01C8204C00E941E1381E062
:1014C0008C838C810F900F900F900F90CF91DF91B4
:1014D0000895DF93CF9300D000D00F92CDB7DEB741
:1014E0009A8389837C836B830E940E130E94661308
:1014F000883011F01D8244C089819A818070977074
:10150000880F892F881F990B9195806A0E94291353
:101510000E946613883111F01D8232C089810E94B9
:1015200029130E946613883211F01D8229C00E947F
:101530000E130E946613803111F01D8221C0898133
:101540009A8180709770880F892F881F990B9195C9
:10155000816A0E9429130E946613803411F01D8253
:101560000FC00E945313EB81FC8180830E9466139D
:10157000883511F01D8204C00E941E1381E08D8306
:101580008D810F900F900F900F900F90CF91DF9162
:101590000895DF93CF93CDB7DEB727970FB6F894B2
:1015A000DEBF0FBECDBF9B838A837D836C834E835A
:1015B0000E940E130E946613883011F01F8239C0FA
:1015C0008A819B8180709770880F892F881F990B63
:1015D0009195806A0E9429130E946613883111F048
:1015E0001F8227C08A810E9429130E9466138832B5
:1015F00011F01F821EC0198214C08981282F30E08B
:101600008C819D81FC01E20FF31F80810E942913D0
:101610000E946613883211F01F820BC089818F5F90
:10162000898399818E81981740F30E941E1381E06F
:101630008F838F8127960FB6F894DEBF0FBECDBF84
:10164000CF91DF9108950F931F93DF93CF93CDB781
:10165000DEB727970FB6F894DEBF0FBECDBF9B83D2
:101660008A837D836C834E830E940E130E946613CF
:10167000883011F01F826CC08A819B8180709770C6
:10168000880F892F881F990B9195806A0E942913D2
:101690000E946613883111F01F825AC08A810E940D
:1016A00029130E946613883211F01F8251C00E94D4
:1016B0000E130E946613803111F01F8249C08A8187
:1016C0009B8180709770880F892F881F990B919547
:1016D000816A0E9429130E946613803411F01F82D0
:1016E00037C0198215C08981282F30E08C819D81F7
:1016F0008C01020F131F0E944013F80180830E9487
:101700006613803511F01F8223C089818F5F898322
:101710008981282F30E08E81882F90E0019728174B
:1017200039070CF38981282F30E08C819D818C0151
:10173000020F131F0E945313F80180830E94661347
:10174000883511F01F8204C00E941E13F1E0FF8350
:101750008F8127960FB6F894DEBF0FBECDBFCF9115
:10176000DF911F910F910895DF93CF9300D000D0A8
:101770000F92CDB7DEB789836A834B838A81883025
:1017800008F0D5C08981843008F0D1C08981282F24
:1017900030E03D832C838C819D818130910509F45B
:1017A00043C02C813D81223031052CF48C819D81F8
:1017B000009771F0BCC02C813D812230310509F4C5
:1017C0005FC08C819D818330910509F485C0AFC0D5
:1017D0008B818130A1F4AAE3B0E0EAE3F0E08081FC
:1017E000482F8A81282F30E081E090E0022E02C04D
:1017F000880F991F0A94E2F7842B8C9398C0AAE370
:10180000B0E0EAE3F0E08081482F8A81282F30E0C1
:1018100081E090E0022E02C0880F991F0A94E2F73F
:10182000809584238C9383C08B818130A1F4A7E3BE
:10183000B0E0E7E3F0E08081482F8A81282F30E094
:1018400081E090E0022E02C0880F991F0A94E2F70F
:10185000842B8C936CC0A7E3B0E0E7E3F0E08081D9
:10186000482F8A81282F30E081E090E0022E02C0CC
:10187000880F991F0A94E2F7809584238C9357C0B0
:101880008B818130A1F4A4E3B0E0E4E3F0E0808157
:10189000482F8A81282F30E081E090E0022E02C09C
:1018A000880F991F0A94E2F7842B8C9340C0A4E31D
:1018B000B0E0E4E3F0E08081482F8A81282F30E017
:1018C00081E090E0022E02C0880F991F0A94E2F78F
:1018D000809584238C932BC08B818130A1F4A1E36C
:1018E000B0E0E1E3F0E08081482F8A81282F30E0EA
:1018F00081E090E0022E02C0880F991F0A94E2F75F
:10190000842B8C9314C0A1E3B0E0E1E3F0E080818C
:10191000482F8A81282F30E081E090E0022E02C01B
:10192000880F991F0A94E2F7809584238C930F9077
:101930000F900F900F900F90CF91DF910895DF934C
:10194000CF9300D000D00F92CDB7DEB789836A83E2
:101950004B838A81883008F0D5C08981843008F0B3
:10196000D1C08981282F30E03D832C838C819D81DB
:101970008130910509F443C02C813D81223031052D
:101980002CF48C819D81009771F0BCC02C813D812D
:101990002230310509F45FC08C819D81833091052F
:1019A00009F485C0AFC08B818130A1F4ABE3B0E016
:1019B000EBE3F0E08081482F8A81282F30E081E03E
:1019C00090E0022E02C0880F991F0A94E2F7842B40
:1019D0008C9398C0ABE3B0E0EBE3F0E08081482F5C
:1019E0008A81282F30E081E090E0022E02C0880F2B
:1019F000991F0A94E2F7809584238C9383C08B818E
:101A00008130A1F4A8E3B0E0E8E3F0E08081482F62
:101A10008A81282F30E081E090E0022E02C0880FFA
:101A2000991F0A94E2F7842B8C936CC0A8E3B0E072
:101A3000E8E3F0E08081482F8A81282F30E081E0C0
:101A400090E0022E02C0880F991F0A94E2F7809559
:101A500084238C9357C08B818130A1F4A5E3B0E03F
:101A6000E5E3F0E08081482F8A81282F30E081E093
:101A700090E0022E02C0880F991F0A94E2F7842B8F
:101A80008C9340C0A5E3B0E0E5E3F0E08081482F0F
:101A90008A81282F30E081E090E0022E02C0880F7A
:101AA000991F0A94E2F7809584238C932BC08B8135
:101AB0008130A1F4A2E3B0E0E2E3F0E08081482FBE
:101AC0008A81282F30E081E090E0022E02C0880F4A
:101AD000991F0A94E2F7842B8C9314C0A2E3B0E020
:101AE000E2E3F0E08081482F8A81282F30E081E016
:101AF00090E0022E02C0880F991F0A94E2F78095A9
:101B000084238C930F900F900F900F900F90CF9194
:101B1000DF910895DF93CF9300D000D00F92CDB71F
:101B2000DEB78A836B8319828B81883008F084C08A
:101B30008A81843008F080C08A81282F30E03D837C
:101B40002C834C815D814130510579F18C819D81DF
:101B50008230910534F42C813D812115310569F0E5
:101B60006BC04C815D8142305105B9F18C819D8102
:101B70008330910509F449C05FC0E9E3F0E080815A
:101B8000282F30E08B81882F90E0A90102C0559565
:101B900047958A95E2F7CA0181709070882319F001
:101BA00081E0898349C0198247C0E6E3F0E0808183
:101BB000282F30E08B81882F90E0A90102C0559535
:101BC00047958A95E2F7CA0181709070882319F0D1
:101BD00081E0898331C019822FC0E3E3F0E0808186
:101BE000282F30E08B81882F90E0A90102C0559505
:101BF00047958A95E2F7CA0181709070882319F0A1
:101C000081E0898319C0198217C0E0E3F0E0808188
:101C1000282F30E08B81882F90E0A90102C05595D4
:101C200047958A95E2F7CA0181709070882319F070
:101C300081E0898301C0198289810F900F900F90F4
:101C40000F900F90CF91DF910895DF93CF9300D045
:101C500000D0CDB7DEB789836A838981843090F55F
:101C60008981282F30E03C832B838B819C818130BC
:101C70009105D1F02B813C81223031052CF48B81F0
:101C80009C81009761F01EC02B813C812230310580
:101C900081F08B819C818330910581F013C0EAE350
:101CA000F0E08A8180830EC0E7E3F0E08A818083E0
:101CB00009C0E4E3F0E08A81808304C0E1E3F0E05E
:101CC0008A8180830F900F900F900F90CF91DF91BA
:101CD0000895DF93CF9300D000D0CDB7DEB78983CE
:101CE0006A838981843090F58981282F30E03C8394
:101CF0002B838B819C8181309105D1F02B813C819C
:101D0000223031052CF48B819C81009761F01EC03C
:101D10002B813C812230310581F08B819C81833085
:101D2000910581F013C0EBE3F0E08A8180830EC05F
:101D3000E8E3F0E08A81808309C0E5E3F0E08A818E
:101D4000808304C0E2E3F0E08A8180830F900F90EB
:101D50000F900F90CF91DF910895DF93CF9300D034
:101D600000D0CDB7DEB78A8319828A81843090F59E
:101D70008A81282F30E03C832B838B819C818130AA
:101D80009105D1F02B813C81223031052CF48B81DF
:101D90009C81009761F01EC02B813C81223031056F
:101DA00081F08B819C818330910581F013C0E9E340
:101DB000F0E0808189830EC0E6E3F0E080818983D2
:101DC00009C0E3E3F0E08081898304C0E0E3F0E050
:101DD0008081898389810F900F900F900F90CF9110
:101DE000DF910895DF93CF93CDB7DEB782E062E055
:101DF00040E00E94B40BCF91DF910895DF93CF9321
:101E00000F92CDB7DEB782E062E00E948A0D89832F
:101E100089810F90CF91DF910895DF93CF930F9237
:101E2000CDB7DEB78983E2E5F0E01082A3E5B0E04C
:101E3000E3E5F0E0808180648C93A3E5B0E0E3E526
:101E4000F0E0808188608C93A3E5B0E0E3E5F0E00A
:101E5000808180628C93A3E5B0E0E3E5F0E08081CF
:101E60008F7E8C93A3E5B0E0E3E5F0E080818160B4
:101E70008C93A3E5B0E0E3E5F0E0808182608C9391
:101E8000A3E5B0E0E3E5F0E080818B7F8C93ECE5A7
:101E9000F0E08981808381E063E041E00E94B40B3F
:101EA0000F90CF91DF9108951F920F920FB60F926E
:101EB00011242F933F934F935F936F937F938F934F
:101EC0009F93AF93BF93EF93FF93DF93CF93CDB7E0
:101ED000DEB780917E0090917F00009729F0E0911D
:101EE0007E00F0917F000995CF91DF91FF91EF91F6
:101EF000BF91AF919F918F917F916F915F914F9122
:101F00003F912F910F900FBE0F901F9018951F9229
:101F10000F920FB60F9211242F933F934F935F931D
:101F20006F937F938F939F93AF93BF93EF93FF93A1
:101F3000DF93CF93CDB7DEB780917E0090917F0085
:101F4000009729F0E0917E00F0917F000995CF91F4
:101F5000DF91FF91EF91BF91AF919F918F917F9111
:101F60006F915F914F913F912F910F900FBE0F9006
:101F70001F9018951F920F920FB60F9211242F9356
:101F80003F934F935F936F937F938F939F93AF9301
:101F9000BF93EF93FF93DF93CF93CDB7DEB78091DD
:101FA000800090918100009729F0E0918000F091ED
:101FB00081000995CF91DF91FF91EF91BF91AF9192
:101FC0009F918F917F916F915F914F913F912F9151
:101FD0000F900FBE0F901F9018951F920F920FB683
:101FE0000F9211242F933F934F935F936F937F939F
:101FF0008F939F93AF93BF93EF93FF93DF93CF9311
:10200000CDB7DEB78091800090918100009729F0D4
:10201000E0918000F09181000995CF91DF91FF91CF
:10202000EF91BF91AF919F918F917F916F915F9150
:102030004F913F912F910F900FBE0F901F901895C9
:102040001F920F920FB60F9211242F933F934F932D
:102050005F936F937F938F939F93AF93BF93EF9310
:10206000FF93DF93CF93CDB7DEB78091820090913D
:102070008300009729F0E0918200F0918300099598
:10208000CF91DF91FF91EF91BF91AF919F918F9190
:102090007F916F915F914F913F912F910F900FBE64
:1020A0000F901F9018951F920F920FB60F92112448
:1020B0002F933F934F935F936F937F938F939F9350
:1020C000AF93BF93EF93FF93DF93CF93CDB7DEB77B
:1020D0008091820090918300009729F0E091820026
:1020E000F09183000995CF91DF91FF91EF91BF911E
:1020F000AF919F918F917F916F915F914F913F91A0
:102100002F910F900FBE0F901F901895DF93CF93D4
:1021100000D000D00F92CDB7DEB79A8389836B834E
:102120008B81282F30E03D832C838C819D818130F1
:10213000910581F02C813D812230310591F08C8117
:102140009D810097A1F489819A8190937F0080936B
:102150007E000DC089819A819093810080938000D8
:1021600006C089819A8190938300809382000F90AA
:102170000F900F900F900F90CF91DF910895DF9304
:10218000CF93CDB7DEB72A970FB6F894DEBF0FBE58
:10219000CDBF9A838983E981FA818481282F30E039
:1021A0003A87298789859A858130910509F47DC010
:1021B00029853A852230310509F4FDC089859A8543
:1021C000009709F069C1E3E5F0E01082E2E5F0E094
:1021D0001082ECE5F0E01082E9E5F0E080818D7F8F
:1021E0008083E9E5F0E080818E7F8083A2E5B0E026
:1021F000E981FA81808191818C93A3E5B0E0E3E5E8
:10220000F0E08081982F987FE981FA818581892B80
:102210008C93E3E5F0E080818F7E8083E3E5F0E05E
:1022200080818F7D8083E981FA818681282F30E04B
:1022300038872F838F819885009731F02F813885DB
:1022400021303105B1F028C1E3E5F0E080818F7BDA
:102250008083E3E5F0E08081877F8083E3E5F0E041
:10226000808180688083E9E5F0E0808181608083FF
:1022700013C1E3E5F0E080818F7B8083E3E5F0E04C
:10228000808188608083E3E5F0E0808180688083DE
:10229000ACE5B0E0E981FA81828193818C93E9E534
:1022A000F0E0808182608083F7C0EFE4F0E010828C
:1022B000EEE4F0E01082ECE4F0E011821082EAE457
:1022C000F0E011821082A9E5B0E0E9E5F0E080815C
:1022D000837C8C93ACE4B0E0E981FA8180819181C8
:1022E00011969C938E93AEE4B0E0EEE4F0E0808132
:1022F000982F987FE981FA818581892B8C93AFE4AF
:10230000B0E0EFE4F0E080818F708C93E981FA8196
:102310008681282F30E03E832D838D819E8100971A
:1023200031F02D813E8121303105D9F0B5C0EFE487
:10233000F0E080818E7F8083EFE4F0E080818D7F0C
:102340008083EEE4F0E08081877F8083EEE4F0E03C
:1023500080818F7E8083E9E5F0E0808184608083E6
:102360009BC0AFE4B0E0EFE4F0E080818C7F8C9321
:10237000EEE4F0E0808188608083EEE4F0E080812C
:102380008F7E8083EFE4F0E0808184608083EFE4DF
:10239000F0E0808188608083AAE4B0E0E981FA817E
:1023A0008281938111969C938E93E9E5F0E0808180
:1023B0008061808371C0E5E4F0E01082E4E4F0E045
:1023C0001082E3E4F0E01082E9E5F0E080818F77AD
:1023D0008083E9E5F0E080818F7B8083A4E4B0E036
:1023E000E981FA81808191818C93A5E4B0E0E5E4F4
:1023F000F0E08081982F987FE981FA818581892B8F
:102400008C93E5E4F0E080818F7E8083E5E4F0E06A
:1024100080818F7D8083E981FA818681282F30E059
:102420003C832B838B819C81009731F02B813C81F5
:1024300021303105B1F030C0E5E4F0E080818F7BE0
:102440008083E5E4F0E08081877F8083E5E4F0E04D
:10245000808180688083E9E5F0E08081806480830A
:102460001BC0E5E4F0E080818F7B8083E5E4F0E051
:10247000808188608083E5E4F0E0808180688083EB
:10248000A3E4B0E0E981FA81828193818C93E9E54C
:10249000F0E08081806880832A960FB6F894DEBFD2
:1024A0000FBECDBFCF91DF910895DF93CF9300D0C2
:1024B0000F92CDB7DEB789838981282F30E03B8327
:1024C0002A838A819B8181309105E9F02A813B81B1
:1024D0002230310571F18A819B810097E9F5E3E5AE
:1024E000F0E01082E2E5F0E01082ECE5F0E010822E
:1024F000E9E5F0E080818D7F8083E9E5F0E080818F
:102500008E7F808329C0EFE4F0E01082EEE4F0E0FB
:102510001082ECE4F0E011821082EAE4F0E0118233
:102520001082A9E5B0E0E9E5F0E08081837C8C933E
:1025300013C0E5E4F0E01082E4E4F0E01082E3E4AC
:10254000F0E01082E9E5F0E080818F778083E9E5B3
:10255000F0E080818F7B80830F900F900F90CF9160
:10256000DF910895CF92DF92EF92FF920F931F9326
:10257000DF93CF9300D0CDB7DEB79A838983A1E2F2
:10258000B0E0E981FA8180818C93CC24DD246894C9
:10259000C5F8E981FA81218132814381548180E04B
:1025A00092E1AAE7B0E0BC01CD010E94D514DA01A6
:1025B000C9010F2EF0EFEF2EFFEFFF2EFFEF0F2FD1
:1025C000FFEF1F2FF02DE80EF91E0A1F1B1FE1E27F
:1025D000F0E0908188E08927282F30E040E050E04B
:1025E000C801B7010E94D514DA01C901F601808340
:1025F000A2E2B0E0E981FA818581880F8C93E6E55B
:10260000F0E084E080830F900F90CF91DF911F91D5
:102610000F91FF90EF90DF90CF900895DF93CF93CD
:10262000CDB7DEB7E6E5F0E084EA8083E6E5F0E0EA
:1026300080818823DCF7CF91DF910895DF93CF93DA
:10264000CDB7DEB7E6E5F0E084E98083CF91DF9196
:102650000895DF93CF930F92CDB7DEB78983E3E27E
:10266000F0E089818083E6E5F0E084E88083E6E5B8
:10267000F0E080818823DCF70F90CF91DF910895FF
:10268000DF93CF93CDB7DEB7E6E5F0E084EC80834F
:10269000E6E5F0E080818823DCF7E3E2F0E080818A
:1026A000CF91DF910895DF93CF93CDB7DEB7E6E505
:1026B000F0E084E88083E6E5F0E080818823DCF7C1
:1026C000E3E2F0E08081CF91DF910895DF93CF9333
:1026D0000F92CDB7DEB7E1E2F0E08081887F898399
:1026E00089810F90CF91DF910895DF93CF9300D030
:1026F00000D0CDB7DEB79C838B831A821982EBE2C0
:10270000F0E082E08083EAE2F0E088E18083A0E408
:10271000B0E0EB81FC818181882F90E082959295D9
:10272000907F9827807F9827282F2068EB81FC8155
:102730008281882F90E0880F991F880F991F880F3A
:10274000991F282BEB81FC818081882F90E0880FD6
:10275000991F822B8C93EB81FC8183819481A581CD
:10276000B681880F991FAA1FBB1F880F991FAA1F28
:10277000BB1F880F991FAA1FBB1F9C01AD0180E0E2
:1027800092E1AAE7B0E0BC01CD010E94D514DA01C4
:10279000C90101979A838983E9E2F0E08981808306
:1027A000E0E4F0E089819A81892F992780830F9056
:1027B0000F900F900F90CF91DF910895DF93CF93FB
:1027C0000F92CDB7DEB78983EBE2F0E08081882FEE
:1027D00090E0807290700097B9F3ECE2F0E08981AC
:1027E00080830F90CF91DF910895DF93CF930F9265
:1027F000CDB7DEB7EBE2F0E080818823DCF7EBE2D7
:10280000F0E08081882F90E080719070009771F4E3
:10281000EBE2F0E08081882F90E084709070009768
:1028200029F4ECE2F0E08081898301C0198289817A
:102830000F90CF91DF910895DF93CF9300D00F9247
:10284000CDB7DEB79B838A8319820EC08981282F7A
:1028500030E08A819B81FC01E20FF31F80810E949E
:10286000DE1389818F5F89838981282F30E08A81F7
:102870009B81FC01E20FF31F8081882339F70F90C1
:102880000F900F90CF91DF9108950F931F93DF93D7
:10289000CF9300D00F92CDB7DEB79B838A83198286
:1028A0008981282F30E08A819B818C01020F131FC0
:1028B0000E94F513F80180830FC089818F5F89839F
:1028C0008981282F30E08A819B818C01020F131FA0
:1028D0000E94F513F80180838981282F30E08A81D6
:1028E0009B81FC01E20FF31F8081833231F78981E4
:1028F000282F30E08A819B81FC01E20FF31F1082B8
:102900000F900F900F90CF91DF911F910F9108952D
:10291000DF93CF9300D000D0CDB7DEB79B838A83FF
:102920006C8319820EC08981282F30E08A819B81B7
:10293000FC01E20FF31F80810E94DE1389818F5F0B
:10294000898399818C81981770F30F900F900F9065
:102950000F90CF91DF9108950F931F93DF93CF9343
:1029600000D000D0CDB7DEB79B838A836C831982F9
:102970000FC08981282F30E08A819B818C01020F52
:10298000131F0E94F513F801808389818F5F89836B
:1029900099818C81981768F30F900F900F900F908A
:1029A000CF91DF911F910F910895A1E21A2EAA1BDA
:1029B000BB1BFD010DC0AA1FBB1FEE1FFF1FA217EF
:1029C000B307E407F50720F0A21BB30BE40BF50BEC
:1029D000661F771F881F991F1A9469F76095709575
:1029E000809590959B01AC01BD01CF0108952F9278
:1029F0003F924F925F926F927F928F929F92AF928F
:102A0000BF92CF92DF92EF92FF920F931F93CF93DB
:102A1000DF93CDB7DEB7CA1BDB0B0FB6F894DEBF72
:102A20000FBECDBF09942A88398848885F846E8498
:102A30007D848C849B84AA84B984C884DF80EE80E2
:102A4000FD800C811B81AA81B981CE0FD11D0FB6EB
:102A5000F894DEBF0FBECDBFED010895FB01DC0190
:102A60008D91019080190110D9F3990B0895F89474
:022A7000FFCF96
:102A7200000000000000000000801A0600010300B0
:0C2A820000802500000000841E010501FA
:00000001FF
