:100000000C942A000C9447000C9447000C94470071
:100010000C945F170C942C170C9447000C94F91651
:100020000C9447000C94C6160C9493160C9460160E
:100030000C9447000C9447000C9447000C94470024
:100040000C9447000C9447000C9447000C94470014
:100050000C94470011241FBECFE5D8E0DEBFCDBF12
:1000600011E0A0E6B0E0ECE7F7E302C005900D92E6
:10007000A034B107D9F711E0A0E4B1E001C01D92AE
:10008000A834B107E1F70E94A3050C94BC1B0C94A3
:100090000000EF92FF920F931F937B018C0120E0F1
:1000A00030E040E05FE40E94490388238CF0C801FF
:1000B000B70120E030E040E05FE40E94C1010E940F
:1000C000A9039B01AC01205030404040504806C07D
:1000D000C801B7010E94A9039B01AC01B901CA0183
:1000E0001F910F91FF90EF900895A0E0B0E0EBE733
:1000F000F0E00C94401BDC012B01FA019C91923042
:1001000008F439C1EB018881823008F433C194309E
:1001100069F4843009F02FC111969C91119789815F
:10012000981709F428C1AAE2B1E025C1843009F486
:1001300021C18230A9F4923009F01DC19A01AD01AC
:1001400088E0EA010990AE01E90109929E0181501F
:10015000C1F7E201898111969C918923818308C1AD
:10016000923009F407C112962D903C901397EB0141
:100170008A819B811496AD90BD90CD90DC901797AD
:10018000EC80FD800E811F819101281B390BB90184
:1001900037FF04C066277727621B730B6032710537
:1001A0000CF061C0121613066CF537014801062EDB
:1001B00004C096948794779467940A94D2F721E0C8
:1001C00030E040E050E004C0220F331F441F551FB1
:1001D0006A95D2F721503040404050402E213F21B7
:1001E00040235123211531054105510521F021E01E
:1001F00030E040E050E079018A01E628F72808293C
:1002000019293CC0232BD1F1260E371E350146019A
:10021000062E04C096948794779467940A94D2F734
:1002200021E030E040E050E004C0220F331F441FC3
:10023000551F6A95D2F721503040404050402A2146
:100240003B214C215D21211531054105510521F04E
:1002500021E030E040E050E059016A01A628B728CB
:10026000C828D9280BC0821593052CF01C01AA249C
:10027000BB24650103C0EE24FF24870111969C91E5
:10028000D20111968C91981709F445C0992339F041
:10029000A80197012A193B094C095D0906C0A6016E
:1002A00095012E193F09400B510B57FD08C01182D3
:1002B0003382228224833583468357831DC081E0A5
:1002C00081833382228288279927DC01821B930B4A
:1002D000A40BB50B84839583A683B7830DC0220F2F
:1002E000331F441F551F24833583468357838281E0
:1002F000938101979383828324813581468157813D
:10030000DA01C9010197A109B1098F5F9F4FAF4F72
:10031000BF4328F30BC0918333822282EA0CFB1C7B
:100320000C1D1D1DE482F5820683178383E0808304
:10033000248135814681578157FF1AC0C901AA27F8
:1003400097FDA095BA2F81709070A070B0705695EF
:10035000479537952795822B932BA42BB52B848318
:100360009583A683B7838281938101969383828349
:10037000DF0101C0D201CD01CDB7DEB7E2E10C94BF
:100380005C1BA0E2B0E0E7ECF1E00C944C1B69834D
:100390007A838B839C832D833E834F835887E9E048
:1003A000EE2EF12CEC0EFD1ECE010196B7010E943F
:1003B000D2048E010F5E1F4FCE010596B8010E9438
:1003C000D2048A8991E089278A8BC701B801AE01DE
:1003D000475E5F4F0E9475000E94FD03A096E6E015
:1003E0000C94681BA0E2B0E0E8EFF1E00C944C1B29
:1003F00069837A838B839C832D833E834F835887C5
:10040000F9E0EF2EF12CEC0EFD1ECE010196B701A6
:100410000E94D2048E010F5E1F4FCE010596B801D7
:100420000E94D204C701B801AE01475E5F4F0E942F
:1004300075000E94FD03A096E6E00C94681BA0E204
:10044000B0E0E5E2F2E00C94401B69837A838B8391
:100450009C832D833E834F835887CE010196BE0136
:10046000675F7F4F0E94D204CE010596BE016F5E8A
:100470007F4F0E94D2049985923088F0898982301A
:10048000C8F0943019F4823051F404C0843029F457
:10049000923081F48AE291E0C6C0923049F420E0C3
:1004A0009A858A89981321E02A87CE010996BBC0D4
:1004B000823049F420E09A858A89981321E02A8BBA
:1004C000CE014196B0C02D843E844F8458886D88FB
:1004D0007E888F88988CEE24FF248701AA24BB2471
:1004E000650140E050E060E070E0E0E0F0E0C10174
:1004F00081709070892BE9F0E60CF71C081D191D1E
:100500009A01AB012A0D3B1D4C1D5D1D80E090E062
:10051000A0E0B0E0E614F7040805190520F481E036
:1005200090E0A0E0B0E0BA01A901480F591F6A1F8E
:100530007B1FAA0CBB1CCC1CDD1C97FE08C081E0F5
:1005400090E0A0E0B0E0A82AB92ACA2ADB2A3196B6
:10055000E032F10549F0660C771C881C991C569412
:10056000479437942794C3CFFA85EA892B893C892D
:100570008B859C85280F391F2E5F3F4F17C0CA01FE
:1005800081709070892B61F016950795F794E79428
:1005900080E090E0A0E0B0E8E82AF92A0A2B1B2BC3
:1005A00076956795579547952F5F3F4F77FDE7CF36
:1005B0000CC0440F551F661F771F17FD4160EE0CDE
:1005C000FF1C001F111F21503040403090E05907A0
:1005D00090E0690790E4790760F32B8F3C8FDB0193
:1005E000CA018F779070A070B07080349105A1051A
:1005F000B10561F447FD0AC0E114F10401051105DC
:1006000029F0405C5F4F6F4F7F4F40781A8EFE1786
:1006100011F081E08A8F4D8F5E8F6F8F78A383E01A
:10062000898FCE0149960E94FD03A096E2E10C94C9
:100630005C1BA8E1B0E0EFE1F3E00C944C1B698394
:100640007A838B839C832D833E834F83588789E0F5
:10065000E82EF12CEC0EFD1ECE010196B7010E9492
:10066000D2048E010F5E1F4FCE010596B8010E9485
:10067000D2048985823040F08989823028F0C70110
:10068000B8010E944A0501C08FEF6896E6E00C941D
:10069000681BA8E1B0E0EFE4F3E00C944C1B698325
:1006A0007A838B839C832D833E834F83588789E095
:1006B000E82EF12CEC0EFD1ECE010196B7010E9432
:1006C000D2048E010F5E1F4FCE010596B8010E9425
:1006D000D2048985823040F08989823028F0C701B0
:1006E000B8010E944A0501C08FEF6896E6E00C94BD
:1006F000681BA8E1B0E0EFE7F3E00C944C1B6983C2
:100700007A838B839C832D833E834F83588789E034
:10071000E82EF12CEC0EFD1ECE010196B7010E94D1
:10072000D2048E010F5E1F4FCE010596B8010E94C4
:10073000D2048985823040F08989823028F0C7014F
:10074000B8010E944A0501C081E06896E6E00C9479
:10075000681BACE0B0E0EFEAF3E00C94501B698357
:100760007A838B839C83CE010196BE016B5F7F4FA2
:100770000E94D2048D81823061F1823050F1843048
:1007800021F48E81882351F12EC02F81388537FDC9
:1007900020C06E812F3131051CF06623F9F023C093
:1007A0008EE190E0821B930B29853A854B855C8511
:1007B00004C056954795379527958A95D2F76623B5
:1007C000B1F050954095309521953F4F4F4F5F4F79
:1007D0000EC020E030E040E050E009C02FEF3FEFD6
:1007E0004FEF5FE704C020E030E040E050E8B9019F
:1007F000CA012C96E2E00C946C1BDF92EF92FF9200
:100800000F931F93FC01E480F58006811781D1804E
:100810008081823048F480E090E0A0E1B0E0E82AF6
:10082000F92A0A2B1B2BA5C0843009F49FC0823003
:1008300021F4EE24FF24870105C0E114F104010531
:10084000110519F4E0E0F0E096C0628173819FEF3A
:10085000623879070CF05BC022E83FEF261B370BAC
:100860002A3131052CF020E030E040E050E02AC091
:10087000B801A701022E04C0769567955795479554
:100880000A94D2F781E090E0A0E0B0E004C0880FC5
:10089000991FAA1FBB1F2A95D2F70197A109B10979
:1008A0008E219F21A023B1230097A105B10521F03E
:1008B00081E090E0A0E0B0E09A01AB01282B392B59
:1008C0004A2B5B2BDA01C9018F779070A070B07052
:1008D00080349105A105B10539F427FF09C0205CDA
:1008E0003F4F4F4F5F4F04C0215C3F4F4F4F5F4F13
:1008F000E0E0F0E02030A0E03A07A0E04A07A0E402
:100900005A0710F0E1E0F0E079018A0127C0603871
:10091000710564F5FB01E158FF4FD801C7018F77DE
:100920009070A070B07080349105A105B10539F4C4
:10093000E7FE0DC080E490E0A0E0B0E004C08FE3EB
:1009400090E0A0E0B0E0E80EF91E0A1F1B1F17FFA1
:1009500005C016950795F794E794319687E01695AC
:100960000795F794E7948A95D1F705C0EE24FF2404
:100970008701EFEFF0E06E2F679566276795902F60
:100980009F77D794DD24D7948E2F8695492F462BB9
:10099000582F5D29B701CA011F910F91FF90EF9069
:1009A000DF900895FC01DB01408151812281622F9B
:1009B0006F7770E0221F2227221F9381892F880FD3
:1009C000822B282F30E0991F9927991F11969C930D
:1009D000119721153105A9F54115510561057105DD
:1009E00011F482E037C082E89FEF13969C938E93B8
:1009F00012979A01AB0167E0220F331F441F551F66
:100A00006A95D1F783E08C930DC0220F331F441FEA
:100A1000551F12968D919C911397019713969C9355
:100A20008E931297203080E0380780E0480780E4FA
:100A3000580758F314962D933D934D935C93179755
:100A400008952F3F310579F4411551056105710570
:100A500019F484E08C93089564FF03C081E08C93C3
:100A600012C01C9210C02F57304013963C932E9307
:100A7000129783E08C9387E0440F551F661F771F02
:100A80008A95D1F7706414964D935D936D937C9322
:100A9000179708951F93DC01FB019C91923008F495
:100AA00047C08081823008F443C0943051F41196DD
:100AB0001C91843099F58181682F70E0611B710968
:100AC0003FC0843021F0923031F48230B9F181811D
:100AD000882389F12DC011961C9111978230F1F075
:100AE00081811817D9F412962D913C911397828128
:100AF00093818217930794F028173907BCF0149656
:100B00008D919D910D90BC91A02D248135814681C0
:100B10005781281739074A075B0718F4112341F05A
:100B20000AC082179307A407B50740F4112319F0F0
:100B300061E070E005C06FEF7FEF02C060E070E041
:100B4000CB011F910895DF93CF93CDB7DEB7AA975E
:100B50000FB6F894DEBF0FBECDBFCE014F969FA358
:100B60008EA3E9E3F1E0F9A7E8A7F7E0FAA7E8A583
:100B7000F9A5008088A599A5019699A788A7EEA157
:100B8000FFA100828EA19FA101969FA38EA39AA58B
:100B900091509AA7EAA5EE2351F7AFE5B0E0EFE553
:100BA000F0E0808180688C93CE014F960E94BE1940
:100BB0000E94131180E690E00E948D1580E090E085
:100BC000AAEFB3E4898F9A8FAB8FBC8F698D7A8D32
:100BD0008B8D9C8D20E030E04AEF54E40E941F0290
:100BE000DC01CB018D8B9E8BAF8BB88F6D897E899D
:100BF0008F89988D20E030E040E85FE30E94790320
:100C000088232CF481E090E09C8B8B8B3FC06D8916
:100C10007E898F89988D20E03FEF4FE757E40E944F
:100C2000190318164CF5698D7A8D8B8D9C8D20E0FB
:100C300030E040E251E40E941F02DC01CB01BC0124
:100C4000CD010E944900DC01CB019C8B8B8B0FC036
:100C500088EC90E09A8B898B89899A890197F1F7C2
:100C60009A8B898B8B899C8901979C8B8B8B8B8929
:100C70009C89009769F714C06D897E898F89988D4A
:100C80000E944900DC01CB019C8B8B8B8B899C895A
:100C9000988B8F878F8598890197F1F7988B8F872D
:100CA0008EE39CE061E00E9492170E94F7090E9487
:100CB000341681E790E00E948D152FE730E081E047
:100CC00060E0A9010E94F8150E94880F8D8F80E0D6
:100CD00090E0AAE7B3E48B879C87AD87BE876B85DE
:100CE0007C858D859E8520E030E04AEF54E40E94AB
:100CF0001F02DC01CB018F839887A987BA876F8198
:100D0000788589859A8520E030E040E85FE30E949D
:100D1000790388232CF481E090E09E838D833FC08B
:100D20006F81788589859A8520E03FEF4FE757E40A
:100D30000E94190318164CF56B857C858D859E8560
:100D400020E030E040E251E40E941F02DC01CB01D0
:100D5000BC01CD010E944900DC01CB019E838D8343
:100D60000FC088EC90E09C838B838B819C810197E2
:100D7000F1F79C838B838D819E8101979E838D8368
:100D80008D819E81009769F714C06F817885898570
:100D90009A850E944900DC01CB019E838D838D8161
:100DA0009E819A83898389819A810197F1F79A8339
:100DB00089838D8D8B3209F064C0CE014E960E94DE
:100DC00010098E8D833309F055C085E50E94271ADE
:100DD00082E391E00E94CB170E9434168FE890E0E6
:100DE0000E948D152EE930E081E060E0A9010E94AB
:100DF000F81510924001809140018031E0F381E0CC
:100E00000E9461191092400182E391E00E94CB1789
:100E10000E9434168AEA90E00E948D152AEB30E099
:100E200081E060E0A9010E94F815809140018330C3
:100E3000E0F30E943E1A8434E1F781E00E946119D8
:100E40001092400182E391E00E94CB170E94341679
:100E500083EC90E00E948D1510924001809140013A
:100E60008031E0F381E00E946119109240010E94FC
:100E700034161FCF8E8D823309F01BCF0E94EB08F2
:100E800018CF8D8D8D3209F014CFCE014E960E9471
:100E900010098E8D833359F480914101882309F024
:100EA00008CF81E0809341010E945E0702CF8E8DC2
:100EB000823309F0FECE0E94EB08FBCEDF93CF9386
:100EC000CDB7DEB7AA970FB6F894DEBF0FBECDBF81
:100ED0002DB73EB73AA729A780914101813009F08B
:100EE0006AC18DB79EB79CA38BA383EE0E94271A7D
:100EF00087E08E8F8E8D882F90E02DB73EB7281B10
:100F0000390B0FB6F8943EBF0FBE2DBF8DB79EB7FD
:100F1000019698A78FA38FA198A5009698A78FA355
:100F20002FA138A53AA329A38E8D882F90E02DB745
:100F30003EB7281B390B0FB6F8943EBF0FBE2DBF2E
:100F40008DB79EB701969EA38DA38DA19EA10096FD
:100F50009EA38DA32DA13EA138A32F8F0E943416EE
:100F600020ED30E080E060E0A9010E94F81581E00A
:100F700060E00E94B61589A19AA16E8D0E947C0B3B
:100F80000E94880F8D33E1F780E090E0AAE7B3E498
:100F9000898F9A8FAB8FBC8F698D7A8D8B8D9C8D4D
:100FA00020E030E04AEF54E40E941F02DC01CB0154
:100FB0008D8B9E8BAF8BB88F6D897E898F89988D35
:100FC00020E030E040E85FE30E94790388232CF4BE
:100FD00081E090E09C8B8B8B3FC06D897E898F89EF
:100FE000988D20E03FEF4FE757E40E941903181651
:100FF0004CF5698D7A8D8B8D9C8D20E030E040E240
:1010000051E40E941F02DC01CB01BC01CD010E9412
:101010004900DC01CB019C8B8B8B0FC088EC90E0EE
:101020009A8B898B89899A890197F1F79A8B898B99
:101030008B899C8901979C8B8B8B8B899C890097D2
:1010400069F714C06D897E898F89988D0E94490047
:10105000DC01CB019C8B8B8B8B899C89988B8F8738
:101060008F8598890197F1F7988B8F870E943416A6
:1010700021EE30E080E060E0A9010E94F81522EF47
:1010800030E081E060E0A9010E94F8158F8D98A101
:101090006E8D0E947C0B0E94880F8D33E1F780E0FB
:1010A00090E0AAE7B3E48B879C87AD87BE876B850A
:1010B0007C858D859E8520E030E04AEF54E40E94D7
:1010C0001F02DC01CB018F839887A987BA876F81C4
:1010D000788589859A8520E030E040E85FE30E94CA
:1010E000790388232CF481E090E09E838D833FC0B8
:1010F0006F81788589859A8520E03FEF4FE757E437
:101100000E94190318164CF56B857C858D859E858C
:1011100020E030E040E251E40E941F02DC01CB01FC
:10112000BC01CD010E944900DC01CB019E838D836F
:101130000FC088EC90E09C838B838B819C8101970E
:10114000F1F79C838B838D819E8101979E838D8394
:101150008D819E81009769F714C06F81788589859C
:101160009A850E944900DC01CB019E838D838D818D
:101170009E819A83898389819A810197F1F79A8365
:1011800089830E943E1A8F3FE1F789A19AA10E94AC
:10119000651A8F8D98A10E94651A0E943E1A8D8F44
:1011A0008D8D813109F0DACE8BA19CA10FB6F89418
:1011B0009EBF0FBE8DBF29A53AA50FB6F8943EBFBE
:1011C0000FBE2DBFAA960FB6F894DEBF0FBECDBFDF
:1011D000CF91DF910895DF93CF93CDB7DEB782E350
:1011E00091E00E94CB170E9434168DEF90E00E9490
:1011F0008D152BE031E081E060E0A9010E94F81537
:1012000010924001809140018D33E0F381E00E9413
:101210006119109240010E943416CF91DF91089518
:10122000DF93CF93CDB7DEB76A970FB6F894DEBFE2
:101230000FBECDBF9C8B8B8B2DB73EB73A8F298FBE
:101240008DB79EB79E8B8D8B87E0888B8889882F82
:1012500090E02DB73EB7281B390B0FB6F8943EBF70
:101260000FBE2DBF8DB79EB70196988F8F8B8F893C
:10127000988D0096988F8F8B2F89388D3A8B298B7C
:101280001F869AC00E9434168AE191E00E948D1553
:1012900081E060E00E94B61589899A8968890E9478
:1012A0007C0B0E94880F8D33E1F780E090E0AAE785
:1012B000B3E48B879C87AD87BE876B857C858D85E6
:1012C0009E8520E030E04AEF54E40E941F02DC01DA
:1012D000CB018F839887A987BA876F8178858985A5
:1012E0009A8520E030E040E85FE30E94790388239C
:1012F0002CF481E090E09E838D833FC06F817885E0
:1013000089859A8520E03FEF4FE757E40E94190353
:1013100018164CF56B857C858D859E8520E030E028
:1013200040E251E40E941F02DC01CB01BC01CD016F
:101330000E944900DC01CB019E838D830FC088ECA5
:1013400090E09C838B838B819C810197F1F79C8338
:101350008B838D819E8101979E838D838D819E815C
:10136000009769F714C06F81788589859A850E94F6
:101370004900DC01CB019E838D838D819E819A8300
:10138000898389819A810197F1F79A8389830E94E1
:101390003E1A8F3FE1F789899A890E94651A0E9457
:1013A0003E1AEB89FC898083EB89FC898081833339
:1013B00039F08F858F5F8F878F85833008F462CFF8
:1013C0008D899E890FB6F8949EBF0FBE8DBF298D63
:1013D0003A8D0FB6F8943EBF0FBE2DBF6A960FB67A
:1013E000F894DEBF0FBECDBFCF91DF910895DF939C
:1013F000CF93CDB7DEB7AA970FB6F894DEBF0FBE76
:10140000CDBF2DB73EB73AA729A78DB79EB79CA3EE
:101410008BA387E08E8F8E8D882F90E02DB73EB7FF
:10142000281B390B0FB6F8943EBF0FBE2DBF8DB7EA
:101430009EB7019698A78FA38FA198A5009698A70D
:101440008FA32FA138A53AA329A38E8D882F90E0D2
:101450002DB73EB7281B390B0FB6F8943EBF0FBE11
:101460002DBF8DB79EB701969EA38DA38DA19EA182
:1014700000969EA38DA32DA13EA138A32F8F0E947D
:10148000341620ED30E080E060E0A9010E94F815FC
:1014900081E060E00E94B61589A19AA16E8D0E943C
:1014A0007C0B0E94880F8D33E1F780E090E0AAE783
:1014B000B3E4898F9A8FAB8FBC8F698D7A8D8B8DBA
:1014C0009C8D20E030E04AEF54E40E941F02DC01D2
:1014D000CB018D8B9E8BAF8BB88F6D897E898F8969
:1014E000988D20E030E040E85FE30E947903882394
:1014F0002CF481E090E09C8B8B8B3FC06D897E89C2
:101500008F89988D20E03FEF4FE757E40E94190341
:1015100018164CF5698D7A8D8B8D9C8D20E030E00E
:1015200040E251E40E941F02DC01CB01BC01CD016D
:101530000E944900DC01CB019C8B8B8B0FC088EC97
:1015400090E09A8B898B89899A890197F1F79A8B18
:10155000898B8B899C8901979C8B8B8B8B899C8930
:10156000009769F714C06D897E898F89988D0E94D4
:101570004900DC01CB019C8B8B8B8B899C89988BE0
:101580008F878F8598890197F1F7988B8F870E94B5
:10159000341621EE30E080E060E0A9010E94F815E9
:1015A00022EF30E081E060E0A9010E94F8158F8D04
:1015B00098A16E8D0E947C0B0E94880F8D33E1F7FD
:1015C00080E090E0AAE7B3E48B879C87AD87BE8775
:1015D0006B857C858D859E8520E030E04AEF54E464
:1015E0000E941F02DC01CB018F839887A987BA87ED
:1015F0006F81788589859A8520E030E040E85FE357
:101600000E94790388232CF481E090E09E838D83EF
:101610003FC06F81788589859A8520E03FEF4FE74D
:1016200057E40E94190318164CF56B857C858D854F
:101630009E8520E030E040E251E40E941F02DC0180
:10164000CB01BC01CD010E944900DC01CB019E838E
:101650008D830FC088EC90E09C838B838B819C8171
:101660000197F1F79C838B838D819E8101979E83E7
:101670008D838D819E81009769F714C06F81788575
:1016800089859A850E944900DC01CB019E838D8368
:101690008D819E819A83898389819A810197F1F74F
:1016A0009A8389830E943E1A8F3FE1F789A19AA10C
:1016B0000E94651A8F8D98A10E94651A0E943E1A99
:1016C0008D8F8D8D813109F0DACE8BA19CA10FB663
:1016D000F8949EBF0FBE8DBF29A53AA50FB6F8940A
:1016E0003EBF0FBE2DBFAA960FB6F894DEBF0FBE49
:1016F000CDBFCF91DF9108950F931F93DF93CF93C9
:10170000CDB7DEB762970FB6F894DEBF0FBECDBF80
:10171000998B888B6A8B1F8685C08F85282F30E038
:10172000888999898C01020F131F0E94880F805DA0
:10173000F80180838AE20E949E1380E090E0AAE78D
:10174000B3E48B879C87AD87BE876B857C858D8551
:101750009E8520E030E04AEF54E40E941F02DC0145
:10176000CB018F839887A987BA876F817885898510
:101770009A8520E030E040E85FE30E947903882307
:101780002CF481E090E09E838D833FC06F8178854B
:1017900089859A8520E03FEF4FE757E40E941903BF
:1017A00018164CF56B857C858D859E8520E030E094
:1017B00040E251E40E941F02DC01CB01BC01CD01DB
:1017C0000E944900DC01CB019E838D830FC088EC11
:1017D00090E09C838B838B819C810197F1F79C83A4
:1017E0008B838D819E8101979E838D838D819E81C8
:1017F000009769F714C06F81788589859A850E9462
:101800004900DC01CB019E838D838D819E819A836B
:10181000898389819A810197F1F79A8389838F85DA
:101820008F5F8F878F85282F30E08A89882F90E0FF
:101830000297281739070CF470CF8F85282F30E0D6
:1018400088899989FC01E20FF31F83E280838F85E9
:101850008F5F8F878F85282F30E088899989FC01D9
:10186000E20FF31F108262960FB6F894DEBF0FBE30
:10187000CDBFCF91DF911F910F910895DF93CF934B
:10188000CDB7DEB7809140018F5F80934001CF914B
:10189000DF910895DF93CF9300D000D00F92CDB7A2
:1018A000DEB789836A834B838A81883008F0D5C08C
:1018B0008981843008F0D1C08981282F30E03D83B0
:1018C0002C838C819D818130910509F443C02C814A
:1018D0003D81223031052CF48C819D81009771F07F
:1018E000BCC02C813D812230310509F45FC08C8160
:1018F0009D818330910509F485C0AFC08B81813013
:10190000A1F4AAE3B0E0EAE3F0E08081482F8A8105
:10191000282F30E081E090E0022E02C0880F991F4E
:101920000A94E2F7842B8C9398C0AAE3B0E0EAE330
:10193000F0E08081482F8A81282F30E081E090E01C
:10194000022E02C0880F991F0A94E2F78095842323
:101950008C9383C08B818130A1F4A7E3B0E0E7E3EF
:10196000F0E08081482F8A81282F30E081E090E0EC
:10197000022E02C0880F991F0A94E2F7842B8C93E1
:101980006CC0A7E3B0E0E7E3F0E08081482F8A81F4
:10199000282F30E081E090E0022E02C0880F991FCE
:1019A0000A94E2F7809584238C9357C08B81813011
:1019B000A1F4A4E3B0E0E4E3F0E08081482F8A8161
:1019C000282F30E081E090E0022E02C0880F991F9E
:1019D0000A94E2F7842B8C9340C0A4E3B0E0E4E3E4
:1019E000F0E08081482F8A81282F30E081E090E06C
:1019F000022E02C0880F991F0A94E2F78095842373
:101A00008C932BC08B818130A1F4A1E3B0E0E1E3A2
:101A1000F0E08081482F8A81282F30E081E090E03B
:101A2000022E02C0880F991F0A94E2F7842B8C9330
:101A300014C0A1E3B0E0E1E3F0E08081482F8A81A7
:101A4000282F30E081E090E0022E02C0880F991F1D
:101A50000A94E2F7809584238C930F900F900F9057
:101A60000F900F90CF91DF910895DF93CF9300D027
:101A700000D00F92CDB7DEB789836A834B838A810A
:101A8000883008F0D5C08981843008F0D1C08981C0
:101A9000282F30E03D832C838C819D8181309105FE
:101AA00009F443C02C813D81223031052CF48C8116
:101AB0009D81009771F0BCC02C813D8122303105A1
:101AC00009F45FC08C819D818330910509F485C044
:101AD000AFC08B818130A1F4ABE3B0E0EBE3F0E089
:101AE0008081482F8A81282F30E081E090E0022E0B
:101AF00002C0880F991F0A94E2F7842B8C9398C038
:101B0000ABE3B0E0EBE3F0E08081482F8A81282F3F
:101B100030E081E090E0022E02C0880F991F0A9405
:101B2000E2F7809584238C9383C08B818130A1F46C
:101B3000A8E3B0E0E8E3F0E08081482F8A81282F15
:101B400030E081E090E0022E02C0880F991F0A94D5
:101B5000E2F7842B8C936CC0A8E3B0E0E8E3F0E0FC
:101B60008081482F8A81282F30E081E090E0022E8A
:101B700002C0880F991F0A94E2F7809584238C9302
:101B800057C08B818130A1F4A5E3B0E0E5E3F0E03C
:101B90008081482F8A81282F30E081E090E0022E5A
:101BA00002C0880F991F0A94E2F7842B8C9340C0DF
:101BB000A5E3B0E0E5E3F0E08081482F8A81282F9B
:101BC00030E081E090E0022E02C0880F991F0A9455
:101BD000E2F7809584238C932BC08B818130A1F414
:101BE000A2E3B0E0E2E3F0E08081482F8A81282F71
:101BF00030E081E090E0022E02C0880F991F0A9425
:101C0000E2F7842B8C9314C0A2E3B0E0E2E3F0E0AF
:101C10008081482F8A81282F30E081E090E0022ED9
:101C200002C0880F991F0A94E2F7809584238C9351
:101C30000F900F900F900F900F90CF91DF9108951C
:101C4000DF93CF9300D000D00F92CDB7DEB78A8359
:101C50006B8319828B81883008F084C08A8184303C
:101C600008F080C08A81282F30E03D832C834C818E
:101C70005D814130510579F18C819D8182309105E2
:101C800034F42C813D812115310569F06BC04C8104
:101C90005D8142305105B9F18C819D818330910580
:101CA00009F449C05FC0E9E3F0E08081282F30E00B
:101CB0008B81882F90E0A90102C0559547958A95A0
:101CC000E2F7CA0181709070882319F081E089835E
:101CD00049C0198247C0E6E3F0E08081282F30E058
:101CE0008B81882F90E0A90102C0559547958A9570
:101CF000E2F7CA0181709070882319F081E089832E
:101D000031C019822FC0E3E3F0E08081282F30E05A
:101D10008B81882F90E0A90102C0559547958A953F
:101D2000E2F7CA0181709070882319F081E08983FD
:101D300019C0198217C0E0E3F0E08081282F30E05D
:101D40008B81882F90E0A90102C0559547958A950F
:101D5000E2F7CA0181709070882319F081E08983CD
:101D600001C0198289810F900F900F900F900F90F2
:101D7000CF91DF910895DF93CF9300D000D0CDB7FE
:101D8000DEB789836A838981843090F58981282F21
:101D900030E03C832B838B819C8181309105D1F095
:101DA0002B813C81223031052CF48B819C81009762
:101DB00061F01EC02B813C812230310581F08B8186
:101DC0009C818330910581F013C0EAE3F0E08A81C1
:101DD00080830EC0E7E3F0E08A81808309C0E4E3FA
:101DE000F0E08A81808304C0E1E3F0E08A818083AF
:101DF0000F900F900F900F90CF91DF910895DF9388
:101E0000CF9300D000D0CDB7DEB789836A838981B4
:101E1000843090F58981282F30E03C832B838B819F
:101E20009C8181309105D1F02B813C81223031059C
:101E30002CF48B819C81009761F01EC02B813C812A
:101E40002230310581F08B819C818330910581F0B6
:101E500013C0EBE3F0E08A8180830EC0E8E3F0E09A
:101E60008A81808309C0E5E3F0E08A81808304C031
:101E7000E2E3F0E08A8180830F900F900F900F9043
:101E8000CF91DF910895DF93CF9300D000D0CDB7ED
:101E9000DEB78A8319828A81843090F58A81282F5F
:101EA00030E03C832B838B819C8181309105D1F084
:101EB0002B813C81223031052CF48B819C81009751
:101EC00061F01EC02B813C812230310581F08B8175
:101ED0009C818330910581F013C0E9E3F0E08081BB
:101EE00089830EC0E6E3F0E08081898309C0E3E3E3
:101EF000F0E08081898304C0E0E3F0E080818983A1
:101F000089810F900F900F900F90CF91DF910895DE
:101F1000DF93CF93CDB7DEB760970FB6F894DEBFEF
:101F20000FBECDBF81E060E040E00E944A0C81E03E
:101F300061E040E00E944A0C81E062E040E00E94E3
:101F40004A0C81E063E040E00E944A0C81E064E0DA
:101F500040E00E944A0C81E065E040E00E944A0CAB
:101F600081E066E040E00E944A0C81E067E040E0EA
:101F70000E944A0C1F86ABC081E06F8541E00E9441
:101F80004A0C81E06F8540E00E94350D188A22C01E
:101F90008889982F9C5F81E0692F0E94200E8823FA
:101FA000B1F48F85882F90E0880F991F880F991FB3
:101FB000982F8889890F8F5F0E946C1060960FB6EA
:101FC000F894DEBF0FBECDBFCF91DF910895888911
:101FD0008F5F888B88898430D8F281E06F8540E0FC
:101FE0000E944A0C80E090E0A0E2B1E48B879C87DD
:101FF000AD87BE876B857C858D859E8520E030E032
:102000004AEF54E40E941F02DC01CB018F839887C2
:10201000A987BA876F81788589859A8520E030E025
:1020200040E85FE30E94790388232CF481E090E08C
:102030009E838D833FC06F81788589859A8520E056
:102040003FEF4FE757E40E94190318164CF56B85D4
:102050007C858D859E8520E030E040E251E40E9441
:102060001F02DC01CB01BC01CD010E944900DC0153
:10207000CB019E838D830FC088EC90E09C838B8383
:102080008B819C810197F1F79C838B838D819E814D
:1020900001979E838D838D819E81009769F714C07F
:1020A0006F81788589859A850E944900DC01CB0182
:1020B0009E838D838D819E819A83898389819A8174
:1020C0000197F1F79A8389838F858F5F8F878F853B
:1020D000843008F451CF4ECFDF93CF9300D000D09F
:1020E000CDB7DEB78A8319828A81282F30E03C83FE
:1020F0002B838B819C818830910509F470C02B81E2
:102100003C81293031055CF58B819C8184309105BF
:1021100009F459C02B813C81253031059CF48B8119
:102120009C818230910509F448C02B813C81233089
:1021300031050CF045C08B819C818130910509F4FB
:1021400039C067C02B813C812630310509F441C07C
:102150008B819C81873091050CF03EC037C02B816C
:102160003C812C30310509F446C08B819C818D3037
:1021700091055CF42B813C812A303105B1F18B81D2
:102180009C818B309105A4F52DC02B813C812E3094
:102190003105B9F18B819C818E3091057CF12B81C9
:1021A0003C812F30310579F18B819C818031910503
:1021B00069F12FC087E089832EC088E089832BC016
:1021C00089E0898328C085E2898325C084E08983EA
:1021D00022C085E089831FC086E089831CC08AE213
:1021E000898319C081E0898316C082E0898313C086
:1021F00083E0898310C08DE289830DC08DE08983DF
:102200000AC0198208C08DE3898305C08BE28983E7
:1022100002C08A81898389810F900F900F900F905F
:10222000CF91DF910895DF93CF93CDB7DEB72E978F
:102230000FB6F894DEBF0FBECDBF82E060E041E094
:102240000E944A0C82E061E041E00E944A0C80E07A
:1022500090E0A0EAB1E48B879C87AD87BE876B8551
:102260007C858D859E8520E030E04AEF54E40E9415
:102270001F02DC01CB018F839887A987BA876F8102
:10228000788589859A8520E030E040E85FE30E9408
:10229000790388232CF481E090E09E838D833FC0F6
:1022A0006F81788589859A8520E03FEF4FE757E475
:1022B0000E94190318164CF56B857C858D859E85CB
:1022C00020E030E040E251E40E941F02DC01CB013B
:1022D000BC01CD010E944900DC01CB019E838D83AE
:1022E0000FC088EC90E09C838B838B819C8101974D
:1022F000F1F79C838B838D819E8101979E838D83D3
:102300008D819E81009769F714C06F8178858985DA
:102310009A850E944900DC01CB019E838D838D81CB
:102320009E819A83898389819A810197F1F79A83A3
:10233000898380E06FEF0E94BB0E88E30E94AF119B
:102340008CE00E94AF1181E00E94AF112E960FB673
:10235000F894DEBF0FBECDBFCF91DF910895DF931C
:10236000CF93CDB7DEB7E9970FB6F894DEBF0FBEB7
:10237000CDBF89AF82E060E040E00E94350D80E093
:1023800090E0A0E8BFE38DAB9EABAFABB8AF6DA95B
:102390007EA98FA998AD20E030E04AEF54E40E9476
:1023A0001F02DC01CB0189AB9AABABABBCAB69A91B
:1023B0007AA98BA99CA920E030E040E85FE30E9465
:1023C000790388232CF481E090E098AB8FA73FC07D
:1023D00069A97AA98BA99CA920E03FEF4FE757E4B0
:1023E0000E94190318164CF56DA97EA98FA998AD06
:1023F00020E030E040E251E40E941F02DC01CB010A
:10240000BC01CD010E944900DC01CB0198AB8FA734
:102410000FC088EC90E09EA78DA78DA59EA5019783
:10242000F1F79EA78DA78FA598A9019798AB8FA7C5
:102430008FA598A9009769F714C069A97AA98BA9F3
:102440009CA90E944900DC01CB0198AB8FA78FA506
:1024500098A99CA78BA78BA59CA50197F1F79CA792
:102460008BA782E061E041E00E94350D80E090E0C2
:10247000A0E8BFE38FA398A7A9A7BAA76FA178A5E3
:1024800089A59AA520E030E04AEF54E40E941F029B
:10249000DC01CB018BA39CA3ADA3BEA36BA17CA14C
:1024A0008DA19EA120E030E040E85FE30E94790327
:1024B00088232CF481E090E09AA389A33FC06BA10C
:1024C0007CA18DA19EA120E03FEF4FE757E40E9441
:1024D000190318164CF56FA178A589A59AA520E0D7
:1024E00030E040E251E40E941F02DC01CB01BC015C
:1024F000CD010E944900DC01CB019AA389A30FC042
:1025000088EC90E098A38F8F8F8D98A10197F1F7B9
:1025100098A38F8F89A19AA101979AA389A389A1D2
:102520009AA1009769F714C06BA17CA18DA19EA10F
:102530000E944900DC01CB019AA389A389A19AA139
:102540009E8F8D8F8D8D9E8D0197F1F79E8F8D8F34
:1025500080E069AD0E94FF0E80E090E0A0E8BFE35C
:10256000898F9A8FAB8FBC8F698D7A8D8B8D9C8D67
:1025700020E030E04AEF54E40E941F02DC01CB016E
:102580008D8B9E8BAF8BB88F6D897E898F89988D4F
:1025900020E030E040E85FE30E94790388232CF4D8
:1025A00081E090E09C8B8B8B3FC06D897E898F8909
:1025B000988D20E03FEF4FE757E40E94190318166B
:1025C0004CF5698D7A8D8B8D9C8D20E030E040E25A
:1025D00051E40E941F02DC01CB01BC01CD010E942D
:1025E0004900DC01CB019C8B8B8B0FC088EC90E009
:1025F0009A8B898B89899A890197F1F79A8B898BB4
:102600008B899C8901979C8B8B8B8B899C890097EC
:1026100069F714C06D897E898F89988D0E94490061
:10262000DC01CB019C8B8B8B8B899C89988B8F8752
:102630008F8598890197F1F7988B8F8782E061E009
:1026400040E00E94350D80E090E0A0E8BFE38B877A
:102650009C87AD87BE876B857C858D859E8520E0B8
:1026600030E04AEF54E40E941F02DC01CB018F836B
:102670009887A987BA876F81788589859A8520E0B0
:1026800030E040E85FE30E94790388232CF481E086
:1026900090E09E838D833FC06F81788589859A8580
:1026A00020E03FEF4FE757E40E94190318164CF55E
:1026B0006B857C858D859E8520E030E040E251E48D
:1026C0000E941F02DC01CB01BC01CD010E94490028
:1026D000DC01CB019E838D830FC088EC90E09C834E
:1026E0008B838B819C810197F1F79C838B838D81F8
:1026F0009E8101979E838D838D819E81009769F7CE
:1027000014C06F81788589859A850E944900DC0113
:10271000CB019E838D838D819E819A83898389815C
:102720009A810197F1F79A838983E9960FB6F89415
:10273000DEBF0FBECDBFCF91DF910895DF93CF9362
:10274000CDB7DEB7E9970FB6F894DEBF0FBECDBFA9
:1027500089AF82E060E041E00E94350D80E090E0CA
:10276000A0E8BFE38DAB9EABAFABB8AF6DA97EA9C0
:102770008FA998AD20E030E04AEF54E40E941F0298
:10278000DC01CB0189AB9AABABABBCAB69A97AA935
:102790008BA99CA920E030E040E85FE30E94790328
:1027A00088232CF481E090E098AB8FA73FC069A903
:1027B0007AA98BA99CA920E03FEF4FE757E40E943C
:1027C000190318164CF56DA97EA98FA998AD20E0C4
:1027D00030E040E251E40E941F02DC01CB01BC0169
:1027E000CD010E944900DC01CB0198AB8FA70FC03F
:1027F00088EC90E09EA78DA78DA59EA50197F1F787
:102800009EA78DA78FA598A9019798AB8FA78FA595
:1028100098A9009769F714C069A97AA98BA99CA9FE
:102820000E944900DC01CB0198AB8FA78FA598A926
:102830009CA78BA78BA59CA50197F1F79CA78BA7BD
:1028400082E061E041E00E94350D80E090E0A0E888
:10285000BFE38FA398A7A9A7BAA76FA178A589A559
:102860009AA520E030E04AEF54E40E941F02DC0108
:10287000CB018BA39CA3ADA3BEA36BA17CA18DA117
:102880009EA120E030E040E85FE30E9479038823C6
:102890002CF481E090E09AA389A33FC06BA17CA1B6
:1028A0008DA19EA120E03FEF4FE757E40E9419035E
:1028B00018164CF56FA178A589A59AA520E030E0FF
:1028C00040E251E40E941F02DC01CB01BC01CD01BA
:1028D0000E944900DC01CB019AA389A30FC088ECB8
:1028E00090E098A38F8F8F8D98A10197F1F798A30F
:1028F0008F8F89A19AA101979AA389A389A19AA1EF
:10290000009769F714C06BA17CA18DA19EA10E94C4
:102910004900DC01CB019AA389A389A19AA19E8FCA
:102920008D8F8D8D9E8D0197F1F79E8F8D8F80E01D
:1029300069AD0E94FF0E80E090E0A0E8BFE3898FC0
:102940009A8FAB8FBC8F698D7A8D8B8D9C8D20E09B
:1029500030E04AEF54E40E941F02DC01CB018D8B72
:102960009E8BAF8BB88F6D897E898F89988D20E083
:1029700030E040E85FE30E94790388232CF481E093
:1029800090E09C8B8B8B3FC06D897E898F89988D61
:1029900020E03FEF4FE757E40E94190318164CF56B
:1029A000698D7A8D8B8D9C8D20E030E040E251E482
:1029B0000E941F02DC01CB01BC01CD010E94490035
:1029C000DC01CB019C8B8B8B0FC088EC90E09A8B49
:1029D000898B89899A890197F1F79A8B898B8B89E1
:1029E0009C8901979C8B8B8B8B899C89009769F7BD
:1029F00014C06D897E898F89988D0E944900DC0101
:102A0000CB019C8B8B8B8B899C89988B8F878F8537
:102A100098890197F1F7988B8F8782E061E040E019
:102A20000E94350D80E090E0A0E8BFE38B879C8793
:102A3000AD87BE876B857C858D859E8520E030E0E7
:102A40004AEF54E40E941F02DC01CB018F83988778
:102A5000A987BA876F81788589859A8520E030E0DB
:102A600040E85FE30E94790388232CF481E090E042
:102A70009E838D833FC06F81788589859A8520E00C
:102A80003FEF4FE757E40E94190318164CF56B858A
:102A90007C858D859E8520E030E040E251E40E94F7
:102AA0001F02DC01CB01BC01CD010E944900DC0109
:102AB000CB019E838D830FC088EC90E09C838B8339
:102AC0008B819C810197F1F79C838B838D819E8103
:102AD00001979E838D838D819E81009769F714C035
:102AE0006F81788589859A850E944900DC01CB0138
:102AF0009E838D838D819E819A83898389819A812A
:102B00000197F1F79A838983E9960FB6F894DEBFAF
:102B10000FBECDBFCF91DF910895DF93CF9300D04B
:102B20000F92CDB7DEB79B838A8319820EC089814D
:102B3000282F30E08A819B81FC01E20FF31F808106
:102B40000E949E1389818F5F89838981282F30E0BD
:102B50008A819B81FC01E20FF31F8081882339F772
:102B60000F900F900F90CF91DF910895DF93CF9347
:102B700000D000D00F92CDB7DEB78A836B838A81F5
:102B8000282F30E03D832C838C819D8181309105FD
:102B9000C1F02C813D81223031052CF48C819D8146
:102BA000009761F019C02C813D812230310569F018
:102BB0008C819D818330910561F00EC08B8189836A
:102BC0000BC08B81805C898307C08B81805F898388
:102BD00003C08B81805B8983898180680E94AF11EB
:102BE0000F900F900F900F900F90CF91DF9108955D
:102BF000DF93CF9300D000D0CDB7DEB789836A834F
:102C00005C834B8389816A810E94B6158B819C818C
:102C10000E948D150F900F900F900F90CF91DF9124
:102C20000895DF93CF93CDB7DEB762970FB6F894D0
:102C3000DEBF0FBECDBF9A8B898B89899A899E0191
:102C40002F5F3F4FB9014AE050E00E94771BCE0151
:102C500001960E948D1562960FB6F894DEBF0FBEE6
:102C6000CDBFCF91DF910895DF93CF93CDB7DEB77E
:102C700081E00E94AF11CF91DF910895DF93CF9350
:102C8000CDB7DEB782E062E040E00E944A0CCF910F
:102C9000DF910895DF93CF930F92CDB7DEB7E0E3D6
:102CA000F0E08081882F90E0847090701982009706
:102CB00011F081E0898389810F90CF91DF91089590
:102CC0001F920F920FB60F9211242F933F934F93A1
:102CD0005F936F937F938F939F93AF93BF93EF9384
:102CE000FF93DF93CF93CDB7DEB7809142019091F0
:102CF0004301009729F0E0914201F09143010995C9
:102D0000CF91DF91FF91EF91BF91AF919F918F9103
:102D10007F916F915F914F913F912F910F900FBED7
:102D20000F901F9018951F920F920FB60F921124BB
:102D30002F933F934F935F936F937F938F939F93C3
:102D4000AF93BF93EF93FF93DF93CF93CDB7DEB7EE
:102D50008091420190914301009729F0E091420156
:102D6000F09143010995CF91DF91FF91EF91BF91D0
:102D7000AF919F918F917F916F915F914F913F9113
:102D80002F910F900FBE0F901F9018951F920F92CA
:102D90000FB60F9211242F933F934F935F936F932E
:102DA0007F938F939F93AF93BF93EF93FF93DF93A3
:102DB000CF93CDB7DEB78091440190914501009744
:102DC00029F0E0914401F09145010995CF91DF91FF
:102DD000FF91EF91BF91AF919F918F917F916F91F3
:102DE0005F914F913F912F910F900FBE0F901F90C9
:102DF00018951F920F920FB60F9211242F933F93A5
:102E00004F935F936F937F938F939F93AF93BF93F2
:102E1000EF93FF93DF93CF93CDB7DEB7809144015B
:102E200090914501009729F0E0914401F09145010E
:102E30000995CF91DF91FF91EF91BF91AF919F9154
:102E40008F917F916F915F914F913F912F910F9053
:102E50000FBE0F901F9018951F920F920FB60F92F2
:102E600011242F933F934F935F936F937F938F938F
:102E70009F93AF93BF93EF93FF93DF93CF93CDB720
:102E8000DEB78091460190914701009729F0E091CB
:102E90004601F09147010995CF91DF91FF91EF91A4
:102EA000BF91AF919F918F917F916F915F914F9162
:102EB0003F912F910F900FBE0F901F9018951F926A
:102EC0000F920FB60F9211242F933F934F935F935E
:102ED0006F937F938F939F93AF93BF93EF93FF93E2
:102EE000DF93CF93CDB7DEB7809146019091470134
:102EF000009729F0E0914601F09147010995CF91A3
:102F0000DF91FF91EF91BF91AF919F918F917F9151
:102F10006F915F914F913F912F910F900FBE0F9046
:102F20001F901895DF93CF9300D000D00F92CDB7AC
:102F3000DEB79A8389836B838B81282F30E03D83B2
:102F40002C838C819D818130910581F02C813D8184
:102F50002230310591F08C819D810097A1F4898107
:102F60009A8190934301809342010DC089819A8197
:102F7000909345018093440106C089819A81909382
:102F80004701809346010F900F900F900F900F9084
:102F9000CF91DF910895DF93CF93CDB7DEB72A9716
:102FA0000FB6F894DEBF0FBECDBF9A838983E98147
:102FB000FA818481282F30E03A87298789859A858C
:102FC0008130910509F47DC029853A85223031058B
:102FD00009F4FDC089859A85009709F069C1E3E588
:102FE000F0E01082E2E5F0E01082ECE5F0E0108223
:102FF000E9E5F0E080818D7F8083E9E5F0E0808184
:103000008E7F8083A2E5B0E0E981FA8180819181A1
:103010008C93A3E5B0E0E3E5F0E08081982F987F02
:10302000E981FA818581892B8C93E3E5F0E0808149
:103030008F7E8083E3E5F0E080818F7D8083E9816E
:10304000FA818681282F30E038872F838F819885F9
:10305000009731F02F81388521303105B1F028C13A
:10306000E3E5F0E080818F7B8083E3E5F0E0808121
:10307000877F8083E3E5F0E0808180688083E9E5F5
:10308000F0E080818160808313C1E3E5F0E080811E
:103090008F7B8083E3E5F0E0808188608083E3E5D7
:1030A000F0E0808180688083ACE5B0E0E981FA815E
:1030B000828193818C93E9E5F0E080818260808356
:1030C000F7C0EFE4F0E01082EEE4F0E01082ECE410
:1030D000F0E011821082EAE4F0E011821082A9E5AA
:1030E000B0E0E9E5F0E08081837C8C93ACE4B0E073
:1030F000E981FA818081918111969C938E93AEE44F
:10310000B0E0EEE4F0E08081982F987FE981FA81C9
:103110008581892B8C93AFE4B0E0EFE4F0E080810F
:103120008F708C93E981FA818681282F30E03E836D
:103130002D838D819E81009731F02D813E8121303C
:103140003105D9F0B5C0EFE4F0E080818E7F808357
:10315000EFE4F0E080818D7F8083EEE4F0E0808119
:10316000877F8083EEE4F0E080818F7E8083E9E5D5
:10317000F0E08081846080839BC0AFE4B0E0EFE446
:10318000F0E080818C7F8C93EEE4F0E080818860B9
:103190008083EEE4F0E080818F7E8083EFE4F0E0D6
:1031A000808184608083EFE4F0E0808188608083A8
:1031B000AAE4B0E0E981FA818281938111969C931F
:1031C0008E93E9E5F0E080818061808371C0E5E461
:1031D000F0E01082E4E4F0E01082E3E4F0E010823A
:1031E000E9E5F0E080818F778083E9E5F0E0808198
:1031F0008F7B8083A4E4B0E0E981FA8180819181B2
:103200008C93A5E4B0E0E5E4F0E08081982F987F0E
:10321000E981FA818581892B8C93E5E4F0E0808156
:103220008F7E8083E5E4F0E080818F7D8083E9817B
:10323000FA818681282F30E03C832B838B819C810F
:10324000009731F02B813C8121303105B1F030C045
:10325000E5E4F0E080818F7B8083E5E4F0E080812D
:10326000877F8083E5E4F0E0808180688083E9E502
:10327000F0E08081806480831BC0E5E4F0E0808121
:103280008F7B8083E5E4F0E0808188608083E5E4E3
:10329000F0E0808180688083A3E4B0E0E981FA8176
:1032A000828193818C93E9E5F0E08081806880835E
:1032B0002A960FB6F894DEBF0FBECDBFCF91DF9137
:1032C0000895DF93CF9300D00F92CDB7DEB78983F7
:1032D0008981282F30E03B832A838A819B8181303A
:1032E0009105E9F02A813B812230310571F18A8113
:1032F0009B810097E9F5E3E5F0E01082E2E5F0E07C
:103300001082ECE5F0E01082E9E5F0E080818D7F4D
:103310008083E9E5F0E080818E7F808329C0EFE43F
:10332000F0E01082EEE4F0E01082ECE4F0E01182D4
:103330001082EAE4F0E011821082A9E5B0E0E9E54C
:10334000F0E08081837C8C9313C0E5E4F0E0108290
:10335000E4E4F0E01082E3E4F0E01082E9E5F0E07C
:1033600080818F778083E9E5F0E080818F7B8083A7
:103370000F900F900F90CF91DF910895DF93CF932F
:1033800000D000D0CDB7DEB79C838B831A82198220
:10339000EBE2F0E082E08083EAE2F0E088E1808323
:1033A000A0E4B0E0EB81FC818181882F90E08295E0
:1033B0009295907F9827807F9827282F2068EB810F
:1033C000FC818281882F90E0880F991F880F991FB8
:1033D000880F991F282BEB81FC818081882F90E03A
:1033E000880F991F822B8C93EB81FC8183819481C0
:1033F000A581B681880F991FAA1FBB1F880F991F2F
:10340000AA1FBB1F880F991FAA1FBB1F9C01AD01DC
:1034100080E092E1AAE7B0E0BC01CD010E941E1B52
:10342000DA01C90101979A838983E9E2F0E0898191
:103430008083E0E4F0E089819A81892F9927808355
:103440000F900F900F900F90CF91DF910895DF9321
:10345000CF930F92CDB7DEB78983EBE2F0E08081A6
:10346000882F90E0807290700097B9F3ECE2F0E062
:10347000898180830F90CF91DF910895DF93CF935F
:103480000F92CDB7DEB7EBE2F0E080818823DCF766
:10349000EBE2F0E08081882F90E0807190700097DF
:1034A00071F4EBE2F0E08081882F90E084709070FE
:1034B000009729F4ECE2F0E08081898301C0198251
:1034C00089810F90CF91DF910895DF93CF9300D042
:1034D0000F92CDB7DEB79B838A8319820EC0898194
:1034E000282F30E08A819B81FC01E20FF31F80814D
:1034F0000E94271A89818F5F89838981282F30E074
:103500008A819B81FC01E20FF31F8081882339F7B8
:103510000F900F900F90CF91DF9108950F931F930D
:10352000DF93CF9300D00F92CDB7DEB79B838A8312
:1035300019828981282F30E08A819B818C01020FBA
:10354000131F0E943E1AF80180830FC089818F5F8C
:1035500089838981282F30E08A819B818C01020F29
:10356000131F0E943E1AF80180838981282F30E0C2
:103570008A819B81FC01E20FF31F8081833231F746
:103580008981282F30E08A819B81FC01E20FF31FA3
:1035900010820F900F900F90CF91DF911F910F919C
:1035A0000895DF93CF9300D000D0CDB7DEB79B83D3
:1035B0008A836C8319820EC08981282F30E08A812A
:1035C0009B81FC01E20FF31F80810E94271A8981F1
:1035D0008F5F898399818C81981770F30F900F907A
:1035E0000F900F90CF91DF9108950F931F93DF936A
:1035F000CF9300D000D0CDB7DEB79B838A836C8396
:1036000019820FC08981282F30E08A819B818C012B
:10361000020F131F0E943E1AF801808389818F5F79
:10362000898399818C81981768F30F900F900F9080
:103630000F90CF91DF911F910F910895A1E21A2E63
:10364000AA1BBB1BFD010DC0AA1FBB1FEE1FFF1F46
:10365000A217B307E407F50720F0A21BB30BE40B96
:10366000F50B661F771F881F991F1A9469F76095DD
:103670007095809590959B01AC01BD01CF01089597
:103680002F923F924F925F926F927F928F929F9272
:10369000AF92BF92CF92DF92EF92FF920F931F9360
:1036A000CF93DF93CDB7DEB7CA1BDB0B0FB6F89411
:1036B000DEBF0FBECDBF09942A88398848885F8451
:1036C0006E847D848C849B84AA84B984C884DF80C2
:1036D000EE80FD800C811B81AA81B981CE0FD11DA6
:1036E0000FB6F894DEBF0FBECDBFED010895FB010C
:1036F0009F01E8944230C4F04532B4F44A3029F4D2
:1037000097FB1EF4909581959F4F642F77270E9419
:10371000A81B805D8A330CF0895D8193CB010097F3
:10372000A1F716F45DE251931082C9010C94981B25
:10373000DC01FC01672F71917723E1F7329704C018
:103740007C916D9370836291AE17BF07C8F30895A3
:10375000AA1BBB1B51E107C0AA1FBB1FA617B707B7
:1037600010F0A61BB70B881F991F5A95A9F78095D3
:0C3770009095BC01CD010895F894FFCFA6
:10377C00446F6F72204C6F636B2053797374656D5B
:10378C00002B203A204F70656E20446F6F72002D15
:10379C00203A204368616E67652050617373004462
:1037AC006F6F7220556E6C6F636B696E6700706C17
:1037BC00656173652077616974007761697420664F
:1037CC006F722070656F706C6500746F20656E741D
:1037DC00657200446F6F72204C6F636B696E67008B
:1037EC00706C7A20656E74657220706173733A2008
:1037FC0000706C7A2072652D656E74657220746829
:10380C00650073616D6520706173733A0053797351
:10381C0074656D204C4F434B4544005761697420CF
:10382C00666F722031206D696E00656E7465722052
:10383C006F6C6420706173733A000000000000002C
:10384C0000000000841E010501030000802500001B
:00000001FF
